{
  "contractName": "Voting",
  "abi": [
    {
      "constant": true,
      "inputs": [],
      "name": "candidatesCount",
      "outputs": [
        {
          "name": "",
          "type": "uint256"
        }
      ],
      "payable": false,
      "stateMutability": "view",
      "type": "function"
    },
    {
      "constant": true,
      "inputs": [
        {
          "name": "",
          "type": "uint256"
        }
      ],
      "name": "candidates",
      "outputs": [
        {
          "name": "id",
          "type": "uint256"
        },
        {
          "name": "name",
          "type": "string"
        },
        {
          "name": "votes",
          "type": "uint256"
        }
      ],
      "payable": false,
      "stateMutability": "view",
      "type": "function"
    },
    {
      "constant": true,
      "inputs": [
        {
          "name": "",
          "type": "address"
        }
      ],
      "name": "voters",
      "outputs": [
        {
          "name": "hasVoted",
          "type": "bool"
        },
        {
          "name": "canVote",
          "type": "bool"
        }
      ],
      "payable": false,
      "stateMutability": "view",
      "type": "function"
    },
    {
      "constant": true,
      "inputs": [],
      "name": "mainPerson",
      "outputs": [
        {
          "name": "",
          "type": "address"
        }
      ],
      "payable": false,
      "stateMutability": "view",
      "type": "function"
    },
    {
      "inputs": [],
      "payable": false,
      "stateMutability": "nonpayable",
      "type": "constructor"
    },
    {
      "anonymous": false,
      "inputs": [
        {
          "indexed": false,
          "name": "id",
          "type": "uint256"
        },
        {
          "indexed": false,
          "name": "name",
          "type": "string"
        },
        {
          "indexed": false,
          "name": "votes",
          "type": "uint256"
        }
      ],
      "name": "AddCandidateEvent",
      "type": "event"
    },
    {
      "anonymous": false,
      "inputs": [
        {
          "indexed": false,
          "name": "id",
          "type": "uint256"
        },
        {
          "indexed": false,
          "name": "hasVoted",
          "type": "bool"
        },
        {
          "indexed": false,
          "name": "votes",
          "type": "uint256"
        }
      ],
      "name": "AddVoteEvent",
      "type": "event"
    },
    {
      "constant": false,
      "inputs": [
        {
          "name": "_address",
          "type": "address"
        }
      ],
      "name": "whoCanVote",
      "outputs": [],
      "payable": false,
      "stateMutability": "nonpayable",
      "type": "function"
    },
    {
      "constant": false,
      "inputs": [
        {
          "name": "_name",
          "type": "string"
        }
      ],
      "name": "addCandidate",
      "outputs": [],
      "payable": false,
      "stateMutability": "nonpayable",
      "type": "function"
    },
    {
      "constant": false,
      "inputs": [
        {
          "name": "_id",
          "type": "uint256"
        }
      ],
      "name": "addVote",
      "outputs": [],
      "payable": false,
      "stateMutability": "nonpayable",
      "type": "function"
    }
  ],
  "bytecode": "0x60806040526000805534801561001457600080fd5b5033600160006101000a81548173ffffffffffffffffffffffffffffffffffffffff021916908373ffffffffffffffffffffffffffffffffffffffff160217905550600160036000600160009054906101000a900473ffffffffffffffffffffffffffffffffffffffff1673ffffffffffffffffffffffffffffffffffffffff1673ffffffffffffffffffffffffffffffffffffffff16815260200190815260200160002060000160016101000a81548160ff0219169083151502179055506101176040518060400160405280600c81526020017f4a616e75737a20547261637a000000000000000000000000000000000000000081525061011c60201b60201c565b610352565b600160009054906101000a900473ffffffffffffffffffffffffffffffffffffffff1673ffffffffffffffffffffffffffffffffffffffff163373ffffffffffffffffffffffffffffffffffffffff161461017657600080fd5b600081511161018457600080fd5b60405180606001604052806000548152602001828152602001600081525060026000805481526020019081526020016000206000820151816000015560208201518160010190805190602001906101dc9291906102ad565b506040820151816002015590505060008081548092919060010191905055507f1b09242c6544366ce331cb2b2959efd943ab1185ce610acd094372c903a8307a6000548260006040518084815260200180602001838152602001828103825284818151815260200191508051906020019080838360005b8381101561026e578082015181840152602081019050610253565b50505050905090810190601f16801561029b5780820380516001836020036101000a031916815260200191505b5094505050505060405180910390a150565b828054600181600116156101000203166002900490600052602060002090601f016020900481019282601f106102ee57805160ff191683800117855561031c565b8280016001018555821561031c579182015b8281111561031b578251825591602001919060010190610300565b5b509050610329919061032d565b5090565b61034f91905b8082111561034b576000816000905550600101610333565b5090565b90565b61097c806103616000396000f3fe608060405234801561001057600080fd5b506004361061007d5760003560e01c8063462e91ec1161005b578063462e91ec14610183578063a3ec138d1461023e578063d16f822a146102a5578063f1f7db88146102ef5761007d565b80630383badc146100825780632d35a8a2146100b05780633477ee2e146100ce575b600080fd5b6100ae6004803603602081101561009857600080fd5b8101908080359060200190929190505050610333565b005b6100b8610536565b6040518082815260200191505060405180910390f35b6100fa600480360360208110156100e457600080fd5b810190808035906020019092919050505061053c565b6040518084815260200180602001838152602001828103825284818151815260200191508051906020019080838360005b8381101561014657808201518184015260208101905061012b565b50505050905090810190601f1680156101735780820380516001836020036101000a031916815260200191505b5094505050505060405180910390f35b61023c6004803603602081101561019957600080fd5b81019080803590602001906401000000008111156101b657600080fd5b8201836020820111156101c857600080fd5b803590602001918460018302840111640100000000831117156101ea57600080fd5b91908080601f016020809104026020016040519081016040528093929190818152602001838380828437600081840152601f19601f8201169050808301925050505050505091929192905050506105fe565b005b6102806004803603602081101561025457600080fd5b81019080803573ffffffffffffffffffffffffffffffffffffffff16906020019092919050505061078f565b6040518083151515158152602001821515151581526020019250505060405180910390f35b6102ad6107cd565b604051808273ffffffffffffffffffffffffffffffffffffffff1673ffffffffffffffffffffffffffffffffffffffff16815260200191505060405180910390f35b6103316004803603602081101561030557600080fd5b81019080803573ffffffffffffffffffffffffffffffffffffffff1690602001909291905050506107f3565b005b600360003373ffffffffffffffffffffffffffffffffffffffff1673ffffffffffffffffffffffffffffffffffffffff16815260200190815260200160002060000160019054906101000a900460ff1661038c57600080fd5b600360003373ffffffffffffffffffffffffffffffffffffffff1673ffffffffffffffffffffffffffffffffffffffff16815260200190815260200160002060000160009054906101000a900460ff16156103e657600080fd5b600081101580156103f957506000548111155b61040257600080fd5b60026000828152602001908152602001600020600201600081548092919060010191905055506001600360003373ffffffffffffffffffffffffffffffffffffffff1673ffffffffffffffffffffffffffffffffffffffff16815260200190815260200160002060000160006101000a81548160ff0219169083151502179055507f9973168c7a0aa8c51e4641ca400f8613cf1fab21e11a8b1aa43aea275bb5ea6f81600360003373ffffffffffffffffffffffffffffffffffffffff1673ffffffffffffffffffffffffffffffffffffffff16815260200190815260200160002060000160009054906101000a900460ff1660026000858152602001908152602001600020600201546040518084815260200183151515158152602001828152602001935050505060405180910390a150565b60005481565b6002602052806000526040600020600091509050806000015490806001018054600181600116156101000203166002900480601f0160208091040260200160405190810160405280929190818152602001828054600181600116156101000203166002900480156105ee5780601f106105c3576101008083540402835291602001916105ee565b820191906000526020600020905b8154815290600101906020018083116105d157829003601f168201915b5050505050908060020154905083565b600160009054906101000a900473ffffffffffffffffffffffffffffffffffffffff1673ffffffffffffffffffffffffffffffffffffffff163373ffffffffffffffffffffffffffffffffffffffff161461065857600080fd5b600081511161066657600080fd5b60405180606001604052806000548152602001828152602001600081525060026000805481526020019081526020016000206000820151816000015560208201518160010190805190602001906106be9291906108ab565b506040820151816002015590505060008081548092919060010191905055507f1b09242c6544366ce331cb2b2959efd943ab1185ce610acd094372c903a8307a6000548260006040518084815260200180602001838152602001828103825284818151815260200191508051906020019080838360005b83811015610750578082015181840152602081019050610735565b50505050905090810190601f16801561077d5780820380516001836020036101000a031916815260200191505b5094505050505060405180910390a150565b60036020528060005260406000206000915090508060000160009054906101000a900460ff16908060000160019054906101000a900460ff16905082565b600160009054906101000a900473ffffffffffffffffffffffffffffffffffffffff1681565b600160009054906101000a900473ffffffffffffffffffffffffffffffffffffffff1673ffffffffffffffffffffffffffffffffffffffff163373ffffffffffffffffffffffffffffffffffffffff161461084d57600080fd5b6001600360008373ffffffffffffffffffffffffffffffffffffffff1673ffffffffffffffffffffffffffffffffffffffff16815260200190815260200160002060000160016101000a81548160ff02191690831515021790555050565b828054600181600116156101000203166002900490600052602060002090601f016020900481019282601f106108ec57805160ff191683800117855561091a565b8280016001018555821561091a579182015b828111156109195782518255916020019190600101906108fe565b5b509050610927919061092b565b5090565b61094d91905b80821115610949576000816000905550600101610931565b5090565b9056fea165627a7a7230582066c922a08ba84b0cd47d9bfdae1f8eec1f089301280003c824a0211c739ca0d30029",
  "source": "pragma solidity ^0.5.8;\r\n\r\ncontract Voting {\r\n\r\n\r\n    uint public candidatesCount = 0;\r\n    struct Candidat {\r\n        uint id;\r\n        string name;\r\n        uint votes;\r\n    }\r\n\r\n\r\n    address public mainPerson;\r\n    struct Voter {\r\n        bool hasVoted;\r\n        bool canVote;\r\n    }\r\n    event AddCandidateEvent(\r\n        uint id,\r\n        string name,\r\n        uint votes\r\n    );\r\n    event AddVoteEvent(\r\n        uint id,\r\n        bool hasVoted,\r\n        uint votes\r\n    );\r\n\r\n     mapping(uint => Candidat) public candidates;\r\n     mapping(address => Voter) public voters;\r\n\r\n    constructor() public {\r\n            mainPerson = msg.sender;\r\n            voters[mainPerson].canVote = true;\r\n            addCandidate(\"Janusz Tracz\");\r\n    }\r\n\r\n    function whoCanVote(address _address) public {\r\n        require(msg.sender == mainPerson);\r\n        voters[_address].canVote = true;\r\n    }\r\n\r\n    function addCandidate(string memory _name) public {\r\n        require(msg.sender == mainPerson);\r\n        require(bytes(_name).length>0);\r\n        candidates[candidatesCount] = Candidat(candidatesCount, _name, 0);\r\n        candidatesCount++;\r\n        emit AddCandidateEvent(candidatesCount, _name, 0);\r\n    }\r\n\r\n    function addVote(uint _id) public {\r\n        require(voters[msg.sender].canVote);\r\n        require(!voters[msg.sender].hasVoted);\r\n        require(_id>=0 && _id<=candidatesCount);\r\n        candidates[_id].votes++;\r\n        voters[msg.sender].hasVoted = true;\r\n\r\n        emit AddVoteEvent(_id, voters[msg.sender].hasVoted, candidates[_id].votes);\r\n    }\r\n\r\n}\r\n",
  "sourcePath": "E:/Voting/src/contracts/Voting.sol",
  "compiler": {
    "name": "solc",
    "version": "0.5.8+commit.23d335f2.Emscripten.clang"
  },
  "schemaVersion": "3.0.13",
  "updatedAt": "2019-09-26T13:31:06.301Z",
  "devdoc": {
    "methods": {}
  },
  "userdoc": {
    "methods": {}
  }
}